{
  "_format": "hh-sol-artifact-1",
  "contractName": "MyNFT",
  "sourceName": "contracts/MyNFT.sol",
  "abi": [
    {
      "inputs": [],
      "stateMutability": "nonpayable",
      "type": "constructor"
    },
    {
      "anonymous": false,
      "inputs": [
        {
          "indexed": true,
          "internalType": "address",
          "name": "owner",
          "type": "address"
        },
        {
          "indexed": true,
          "internalType": "address",
          "name": "approved",
          "type": "address"
        },
        {
          "indexed": true,
          "internalType": "uint256",
          "name": "tokenId",
          "type": "uint256"
        }
      ],
      "name": "Approval",
      "type": "event"
    },
    {
      "anonymous": false,
      "inputs": [
        {
          "indexed": true,
          "internalType": "address",
          "name": "owner",
          "type": "address"
        },
        {
          "indexed": true,
          "internalType": "address",
          "name": "operator",
          "type": "address"
        },
        {
          "indexed": false,
          "internalType": "bool",
          "name": "approved",
          "type": "bool"
        }
      ],
      "name": "ApprovalForAll",
      "type": "event"
    },
    {
      "anonymous": false,
      "inputs": [
        {
          "indexed": true,
          "internalType": "address",
          "name": "previousOwner",
          "type": "address"
        },
        {
          "indexed": true,
          "internalType": "address",
          "name": "newOwner",
          "type": "address"
        }
      ],
      "name": "OwnershipTransferred",
      "type": "event"
    },
    {
      "anonymous": false,
      "inputs": [
        {
          "indexed": true,
          "internalType": "address",
          "name": "from",
          "type": "address"
        },
        {
          "indexed": true,
          "internalType": "address",
          "name": "to",
          "type": "address"
        },
        {
          "indexed": true,
          "internalType": "uint256",
          "name": "tokenId",
          "type": "uint256"
        }
      ],
      "name": "Transfer",
      "type": "event"
    },
    {
      "inputs": [
        {
          "internalType": "address",
          "name": "to",
          "type": "address"
        },
        {
          "internalType": "uint256",
          "name": "tokenId",
          "type": "uint256"
        }
      ],
      "name": "approve",
      "outputs": [],
      "stateMutability": "nonpayable",
      "type": "function"
    },
    {
      "inputs": [
        {
          "internalType": "address",
          "name": "owner",
          "type": "address"
        }
      ],
      "name": "balanceOf",
      "outputs": [
        {
          "internalType": "uint256",
          "name": "",
          "type": "uint256"
        }
      ],
      "stateMutability": "view",
      "type": "function"
    },
    {
      "inputs": [
        {
          "internalType": "uint256",
          "name": "tokenId",
          "type": "uint256"
        }
      ],
      "name": "deleteNFT",
      "outputs": [],
      "stateMutability": "nonpayable",
      "type": "function"
    },
    {
      "inputs": [],
      "name": "getAllNFTs",
      "outputs": [
        {
          "internalType": "uint256[]",
          "name": "",
          "type": "uint256[]"
        }
      ],
      "stateMutability": "view",
      "type": "function"
    },
    {
      "inputs": [
        {
          "internalType": "uint256",
          "name": "tokenId",
          "type": "uint256"
        }
      ],
      "name": "getApproved",
      "outputs": [
        {
          "internalType": "address",
          "name": "",
          "type": "address"
        }
      ],
      "stateMutability": "view",
      "type": "function"
    },
    {
      "inputs": [
        {
          "internalType": "uint256",
          "name": "tokenId",
          "type": "uint256"
        }
      ],
      "name": "getNFTById",
      "outputs": [
        {
          "internalType": "string",
          "name": "",
          "type": "string"
        }
      ],
      "stateMutability": "view",
      "type": "function"
    },
    {
      "inputs": [
        {
          "internalType": "address",
          "name": "owner",
          "type": "address"
        },
        {
          "internalType": "address",
          "name": "operator",
          "type": "address"
        }
      ],
      "name": "isApprovedForAll",
      "outputs": [
        {
          "internalType": "bool",
          "name": "",
          "type": "bool"
        }
      ],
      "stateMutability": "view",
      "type": "function"
    },
    {
      "inputs": [
        {
          "internalType": "address",
          "name": "recipient",
          "type": "address"
        },
        {
          "internalType": "string",
          "name": "tokenURI",
          "type": "string"
        }
      ],
      "name": "mintNFT",
      "outputs": [
        {
          "internalType": "uint256",
          "name": "",
          "type": "uint256"
        }
      ],
      "stateMutability": "nonpayable",
      "type": "function"
    },
    {
      "inputs": [],
      "name": "name",
      "outputs": [
        {
          "internalType": "string",
          "name": "",
          "type": "string"
        }
      ],
      "stateMutability": "view",
      "type": "function"
    },
    {
      "inputs": [],
      "name": "owner",
      "outputs": [
        {
          "internalType": "address",
          "name": "",
          "type": "address"
        }
      ],
      "stateMutability": "view",
      "type": "function"
    },
    {
      "inputs": [
        {
          "internalType": "uint256",
          "name": "tokenId",
          "type": "uint256"
        }
      ],
      "name": "ownerOf",
      "outputs": [
        {
          "internalType": "address",
          "name": "",
          "type": "address"
        }
      ],
      "stateMutability": "view",
      "type": "function"
    },
    {
      "inputs": [],
      "name": "renounceOwnership",
      "outputs": [],
      "stateMutability": "nonpayable",
      "type": "function"
    },
    {
      "inputs": [
        {
          "internalType": "address",
          "name": "from",
          "type": "address"
        },
        {
          "internalType": "address",
          "name": "to",
          "type": "address"
        },
        {
          "internalType": "uint256",
          "name": "tokenId",
          "type": "uint256"
        }
      ],
      "name": "safeTransferFrom",
      "outputs": [],
      "stateMutability": "nonpayable",
      "type": "function"
    },
    {
      "inputs": [
        {
          "internalType": "address",
          "name": "from",
          "type": "address"
        },
        {
          "internalType": "address",
          "name": "to",
          "type": "address"
        },
        {
          "internalType": "uint256",
          "name": "tokenId",
          "type": "uint256"
        },
        {
          "internalType": "bytes",
          "name": "data",
          "type": "bytes"
        }
      ],
      "name": "safeTransferFrom",
      "outputs": [],
      "stateMutability": "nonpayable",
      "type": "function"
    },
    {
      "inputs": [
        {
          "internalType": "address",
          "name": "operator",
          "type": "address"
        },
        {
          "internalType": "bool",
          "name": "approved",
          "type": "bool"
        }
      ],
      "name": "setApprovalForAll",
      "outputs": [],
      "stateMutability": "nonpayable",
      "type": "function"
    },
    {
      "inputs": [
        {
          "internalType": "bytes4",
          "name": "interfaceId",
          "type": "bytes4"
        }
      ],
      "name": "supportsInterface",
      "outputs": [
        {
          "internalType": "bool",
          "name": "",
          "type": "bool"
        }
      ],
      "stateMutability": "view",
      "type": "function"
    },
    {
      "inputs": [],
      "name": "symbol",
      "outputs": [
        {
          "internalType": "string",
          "name": "",
          "type": "string"
        }
      ],
      "stateMutability": "view",
      "type": "function"
    },
    {
      "inputs": [
        {
          "internalType": "uint256",
          "name": "tokenId",
          "type": "uint256"
        }
      ],
      "name": "tokenURI",
      "outputs": [
        {
          "internalType": "string",
          "name": "",
          "type": "string"
        }
      ],
      "stateMutability": "view",
      "type": "function"
    },
    {
      "inputs": [
        {
          "internalType": "address",
          "name": "from",
          "type": "address"
        },
        {
          "internalType": "address",
          "name": "to",
          "type": "address"
        },
        {
          "internalType": "uint256",
          "name": "tokenId",
          "type": "uint256"
        }
      ],
      "name": "transferFrom",
      "outputs": [],
      "stateMutability": "nonpayable",
      "type": "function"
    },
    {
      "inputs": [
        {
          "internalType": "address",
          "name": "newOwner",
          "type": "address"
        }
      ],
      "name": "transferOwnership",
      "outputs": [],
      "stateMutability": "nonpayable",
      "type": "function"
    },
    {
      "inputs": [
        {
          "internalType": "uint256",
          "name": "tokenId",
          "type": "uint256"
        },
        {
          "internalType": "string",
          "name": "newTokenURI",
          "type": "string"
        }
      ],
      "name": "updateNFT",
      "outputs": [],
      "stateMutability": "nonpayable",
      "type": "function"
    }
  ],
  "bytecode": "0x60806040523480156200001157600080fd5b506040518060400160405280600a81526020017f436f6465204561746572000000000000000000000000000000000000000000008152506040518060400160405280600381526020017f4345520000000000000000000000000000000000000000000000000000000000815250816000908051906020019062000096929190620001a6565b508060019080519060200190620000af929190620001a6565b505050620000d2620000c6620000d860201b60201c565b620000e060201b60201c565b620002bb565b600033905090565b6000600760009054906101000a900473ffffffffffffffffffffffffffffffffffffffff16905081600760006101000a81548173ffffffffffffffffffffffffffffffffffffffff021916908373ffffffffffffffffffffffffffffffffffffffff1602179055508173ffffffffffffffffffffffffffffffffffffffff168173ffffffffffffffffffffffffffffffffffffffff167f8be0079c531659141344cd1fd0a4f28419497f9722a3daafe3b4186f6b6457e060405160405180910390a35050565b828054620001b49062000256565b90600052602060002090601f016020900481019282620001d8576000855562000224565b82601f10620001f357805160ff191683800117855562000224565b8280016001018555821562000224579182015b828111156200022357825182559160200191906001019062000206565b5b50905062000233919062000237565b5090565b5b808211156200025257600081600090555060010162000238565b5090565b600060028204905060018216806200026f57607f821691505b602082108114156200028657620002856200028c565b5b50919050565b7f4e487b7100000000000000000000000000000000000000000000000000000000600052602260045260246000fd5b6132f080620002cb6000396000f3fe608060405234801561001057600080fd5b50600436106101375760003560e01c806395d89b41116100b8578063c87b56dd1161007c578063c87b56dd14610338578063e0391b0914610368578063e985e9c514610386578063eacabe14146103b6578063f2fde38b146103e6578063f687ed571461040257610137565b806395d89b4114610296578063a168b805146102b4578063a22cb465146102e4578063b88d4fde14610300578063c318d8f81461031c57610137565b806342842e0e116100ff57806342842e0e146101f25780636352211e1461020e57806370a082311461023e578063715018a61461026e5780638da5cb5b1461027857610137565b806301ffc9a71461013c57806306fdde031461016c578063081812fc1461018a578063095ea7b3146101ba57806323b872dd146101d6575b600080fd5b610156600480360381019061015191906123ce565b61041e565b60405161016391906128c0565b60405180910390f35b610174610500565b60405161018191906128db565b60405180910390f35b6101a4600480360381019061019f9190612428565b610592565b6040516101b19190612837565b60405180910390f35b6101d460048036038101906101cf919061238e565b6105d8565b005b6101f060048036038101906101eb919061221c565b6106f0565b005b61020c6004803603810190610207919061221c565b610750565b005b61022860048036038101906102239190612428565b610770565b6040516102359190612837565b60405180910390f35b610258600480360381019061025391906121af565b6107f7565b6040516102659190612add565b60405180910390f35b6102766108af565b005b6102806108c3565b60405161028d9190612837565b60405180910390f35b61029e6108ed565b6040516102ab91906128db565b60405180910390f35b6102ce60048036038101906102c99190612428565b61097f565b6040516102db91906128db565b60405180910390f35b6102fe60048036038101906102f991906122f2565b6109d9565b005b61031a6004803603810190610315919061226f565b6109ef565b005b61033660048036038101906103319190612455565b610a51565b005b610352600480360381019061034d9190612428565b610aaf565b60405161035f91906128db565b60405180910390f35b610370610bc2565b60405161037d919061289e565b60405180910390f35b6103a0600480360381019061039b91906121dc565b610c78565b6040516103ad91906128c0565b60405180910390f35b6103d060048036038101906103cb9190612332565b610d0c565b6040516103dd9190612add565b60405180910390f35b61040060048036038101906103fb91906121af565b610d4c565b005b61041c60048036038101906104179190612428565b610dd0565b005b60007f80ac58cd000000000000000000000000000000000000000000000000000000007bffffffffffffffffffffffffffffffffffffffffffffffffffffffff1916827bffffffffffffffffffffffffffffffffffffffffffffffffffffffff191614806104e957507f5b5e139f000000000000000000000000000000000000000000000000000000007bffffffffffffffffffffffffffffffffffffffffffffffffffffffff1916827bffffffffffffffffffffffffffffffffffffffffffffffffffffffff1916145b806104f957506104f882610e2c565b5b9050919050565b60606000805461050f90612ce5565b80601f016020809104026020016040519081016040528092919081815260200182805461053b90612ce5565b80156105885780601f1061055d57610100808354040283529160200191610588565b820191906000526020600020905b81548152906001019060200180831161056b57829003601f168201915b5050505050905090565b600061059d82610e96565b6004600083815260200190815260200160002060009054906101000a900473ffffffffffffffffffffffffffffffffffffffff169050919050565b60006105e382610770565b90508073ffffffffffffffffffffffffffffffffffffffff168373ffffffffffffffffffffffffffffffffffffffff161415610654576040517f08c379a000000000000000000000000000000000000000000000000000000000815260040161064b90612a7d565b60405180910390fd5b8073ffffffffffffffffffffffffffffffffffffffff16610673610ee1565b73ffffffffffffffffffffffffffffffffffffffff1614806106a257506106a18161069c610ee1565b610c78565b5b6106e1576040517f08c379a00000000000000000000000000000000000000000000000000000000081526004016106d890612a9d565b60405180910390fd5b6106eb8383610ee9565b505050565b6107016106fb610ee1565b82610fa2565b610740576040517f08c379a0000000000000000000000000000000000000000000000000000000008152600401610737906128fd565b60405180910390fd5b61074b838383611037565b505050565b61076b838383604051806020016040528060008152506109ef565b505050565b60008061077c83611331565b9050600073ffffffffffffffffffffffffffffffffffffffff168173ffffffffffffffffffffffffffffffffffffffff1614156107ee576040517f08c379a00000000000000000000000000000000000000000000000000000000081526004016107e590612a5d565b60405180910390fd5b80915050919050565b60008073ffffffffffffffffffffffffffffffffffffffff168273ffffffffffffffffffffffffffffffffffffffff161415610868576040517f08c379a000000000000000000000000000000000000000000000000000000000815260040161085f906129dd565b60405180910390fd5b600360008373ffffffffffffffffffffffffffffffffffffffff1673ffffffffffffffffffffffffffffffffffffffff168152602001908152602001600020549050919050565b6108b761136e565b6108c160006113ec565b565b6000600760009054906101000a900473ffffffffffffffffffffffffffffffffffffffff16905090565b6060600180546108fc90612ce5565b80601f016020809104026020016040519081016040528092919081815260200182805461092890612ce5565b80156109755780601f1061094a57610100808354040283529160200191610975565b820191906000526020600020905b81548152906001019060200180831161095857829003601f168201915b5050505050905090565b606061098a826114b2565b6109c9576040517f08c379a00000000000000000000000000000000000000000000000000000000081526004016109c090612abd565b60405180910390fd5b6109d282610aaf565b9050919050565b6109eb6109e4610ee1565b83836114f3565b5050565b610a006109fa610ee1565b83610fa2565b610a3f576040517f08c379a0000000000000000000000000000000000000000000000000000000008152600401610a36906128fd565b60405180910390fd5b610a4b84848484611660565b50505050565b610a5961136e565b610a62826114b2565b610aa1576040517f08c379a0000000000000000000000000000000000000000000000000000000008152600401610a9890612abd565b60405180910390fd5b610aab82826116bc565b5050565b6060610aba82610e96565b6000600660008481526020019081526020016000208054610ada90612ce5565b80601f0160208091040260200160405190810160405280929190818152602001828054610b0690612ce5565b8015610b535780601f10610b2857610100808354040283529160200191610b53565b820191906000526020600020905b815481529060010190602001808311610b3657829003601f168201915b505050505090506000610b64611730565b9050600081511415610b7a578192505050610bbd565b600082511115610baf578082604051602001610b97929190612813565b60405160208183030381529060405292505050610bbd565b610bb884611747565b925050505b919050565b60606000610bd060086117af565b67ffffffffffffffff811115610be957610be8612e4d565b5b604051908082528060200260200182016040528015610c175781602001602082028036833780820191505090505b5090506000600190505b610c2b60086117af565b8111610c70578082600183610c409190612bfb565b81518110610c5157610c50612e1e565b5b6020026020010181815250508080610c6890612d48565b915050610c21565b508091505090565b6000600560008473ffffffffffffffffffffffffffffffffffffffff1673ffffffffffffffffffffffffffffffffffffffff16815260200190815260200160002060008373ffffffffffffffffffffffffffffffffffffffff1673ffffffffffffffffffffffffffffffffffffffff16815260200190815260200160002060009054906101000a900460ff16905092915050565b6000610d1661136e565b610d2060086117bd565b6000610d2c60086117af565b9050610d3884826117d3565b610d4281846116bc565b8091505092915050565b610d5461136e565b600073ffffffffffffffffffffffffffffffffffffffff168173ffffffffffffffffffffffffffffffffffffffff161415610dc4576040517f08c379a0000000000000000000000000000000000000000000000000000000008152600401610dbb9061293d565b60405180910390fd5b610dcd816113ec565b50565b610dd861136e565b610de1816114b2565b610e20576040517f08c379a0000000000000000000000000000000000000000000000000000000008152600401610e1790612abd565b60405180910390fd5b610e29816119f1565b50565b60007f01ffc9a7000000000000000000000000000000000000000000000000000000007bffffffffffffffffffffffffffffffffffffffffffffffffffffffff1916827bffffffffffffffffffffffffffffffffffffffffffffffffffffffff1916149050919050565b610e9f816114b2565b610ede576040517f08c379a0000000000000000000000000000000000000000000000000000000008152600401610ed590612a5d565b60405180910390fd5b50565b600033905090565b816004600083815260200190815260200160002060006101000a81548173ffffffffffffffffffffffffffffffffffffffff021916908373ffffffffffffffffffffffffffffffffffffffff160217905550808273ffffffffffffffffffffffffffffffffffffffff16610f5c83610770565b73ffffffffffffffffffffffffffffffffffffffff167f8c5be1e5ebec7d5bd14f71427d1e84f3dd0314c0f7b2291e5b200ac8c7c3b92560405160405180910390a45050565b600080610fae83610770565b90508073ffffffffffffffffffffffffffffffffffffffff168473ffffffffffffffffffffffffffffffffffffffff161480610ff05750610fef8185610c78565b5b8061102e57508373ffffffffffffffffffffffffffffffffffffffff1661101684610592565b73ffffffffffffffffffffffffffffffffffffffff16145b91505092915050565b8273ffffffffffffffffffffffffffffffffffffffff1661105782610770565b73ffffffffffffffffffffffffffffffffffffffff16146110ad576040517f08c379a00000000000000000000000000000000000000000000000000000000081526004016110a49061295d565b60405180910390fd5b600073ffffffffffffffffffffffffffffffffffffffff168273ffffffffffffffffffffffffffffffffffffffff16141561111d576040517f08c379a00000000000000000000000000000000000000000000000000000000081526004016111149061299d565b60405180910390fd5b61112a8383836001611a44565b8273ffffffffffffffffffffffffffffffffffffffff1661114a82610770565b73ffffffffffffffffffffffffffffffffffffffff16146111a0576040517f08c379a00000000000000000000000000000000000000000000000000000000081526004016111979061295d565b60405180910390fd5b6004600082815260200190815260200160002060006101000a81549073ffffffffffffffffffffffffffffffffffffffff02191690556001600360008573ffffffffffffffffffffffffffffffffffffffff1673ffffffffffffffffffffffffffffffffffffffff168152602001908152602001600020600082825403925050819055506001600360008473ffffffffffffffffffffffffffffffffffffffff1673ffffffffffffffffffffffffffffffffffffffff16815260200190815260200160002060008282540192505081905550816002600083815260200190815260200160002060006101000a81548173ffffffffffffffffffffffffffffffffffffffff021916908373ffffffffffffffffffffffffffffffffffffffff160217905550808273ffffffffffffffffffffffffffffffffffffffff168473ffffffffffffffffffffffffffffffffffffffff167fddf252ad1be2c89b69c2b068fc378daa952ba7f163c4a11628f55a4df523b3ef60405160405180910390a461132c8383836001611a4a565b505050565b60006002600083815260200190815260200160002060009054906101000a900473ffffffffffffffffffffffffffffffffffffffff169050919050565b611376610ee1565b73ffffffffffffffffffffffffffffffffffffffff166113946108c3565b73ffffffffffffffffffffffffffffffffffffffff16146113ea576040517f08c379a00000000000000000000000000000000000000000000000000000000081526004016113e190612a3d565b60405180910390fd5b565b6000600760009054906101000a900473ffffffffffffffffffffffffffffffffffffffff16905081600760006101000a81548173ffffffffffffffffffffffffffffffffffffffff021916908373ffffffffffffffffffffffffffffffffffffffff1602179055508173ffffffffffffffffffffffffffffffffffffffff168173ffffffffffffffffffffffffffffffffffffffff167f8be0079c531659141344cd1fd0a4f28419497f9722a3daafe3b4186f6b6457e060405160405180910390a35050565b60008073ffffffffffffffffffffffffffffffffffffffff166114d483611331565b73ffffffffffffffffffffffffffffffffffffffff1614159050919050565b8173ffffffffffffffffffffffffffffffffffffffff168373ffffffffffffffffffffffffffffffffffffffff161415611562576040517f08c379a0000000000000000000000000000000000000000000000000000000008152600401611559906129bd565b60405180910390fd5b80600560008573ffffffffffffffffffffffffffffffffffffffff1673ffffffffffffffffffffffffffffffffffffffff16815260200190815260200160002060008473ffffffffffffffffffffffffffffffffffffffff1673ffffffffffffffffffffffffffffffffffffffff16815260200190815260200160002060006101000a81548160ff0219169083151502179055508173ffffffffffffffffffffffffffffffffffffffff168373ffffffffffffffffffffffffffffffffffffffff167f17307eab39ab6107e8899845ad3d59bd9653f200f220920489ca2b5937696c318360405161165391906128c0565b60405180910390a3505050565b61166b848484611037565b61167784848484611a50565b6116b6576040517f08c379a00000000000000000000000000000000000000000000000000000000081526004016116ad9061291d565b60405180910390fd5b50505050565b6116c5826114b2565b611704576040517f08c379a00000000000000000000000000000000000000000000000000000000081526004016116fb906129fd565b60405180910390fd5b8060066000848152602001908152602001600020908051906020019061172b929190611f83565b505050565b606060405180602001604052806000815250905090565b606061175282610e96565b600061175c611730565b9050600081511161177c57604051806020016040528060008152506117a7565b8061178684611be7565b604051602001611797929190612813565b6040516020818303038152906040525b915050919050565b600081600001549050919050565b6001816000016000828254019250508190555050565b600073ffffffffffffffffffffffffffffffffffffffff168273ffffffffffffffffffffffffffffffffffffffff161415611843576040517f08c379a000000000000000000000000000000000000000000000000000000000815260040161183a90612a1d565b60405180910390fd5b61184c816114b2565b1561188c576040517f08c379a00000000000000000000000000000000000000000000000000000000081526004016118839061297d565b60405180910390fd5b61189a600083836001611a44565b6118a3816114b2565b156118e3576040517f08c379a00000000000000000000000000000000000000000000000000000000081526004016118da9061297d565b60405180910390fd5b6001600360008473ffffffffffffffffffffffffffffffffffffffff1673ffffffffffffffffffffffffffffffffffffffff16815260200190815260200160002060008282540192505081905550816002600083815260200190815260200160002060006101000a81548173ffffffffffffffffffffffffffffffffffffffff021916908373ffffffffffffffffffffffffffffffffffffffff160217905550808273ffffffffffffffffffffffffffffffffffffffff16600073ffffffffffffffffffffffffffffffffffffffff167fddf252ad1be2c89b69c2b068fc378daa952ba7f163c4a11628f55a4df523b3ef60405160405180910390a46119ed600083836001611a4a565b5050565b6119fa81611cbf565b6000600660008381526020019081526020016000208054611a1a90612ce5565b905014611a4157600660008281526020019081526020016000206000611a409190612009565b5b50565b50505050565b50505050565b6000611a718473ffffffffffffffffffffffffffffffffffffffff16611e0d565b15611bda578373ffffffffffffffffffffffffffffffffffffffff1663150b7a02611a9a610ee1565b8786866040518563ffffffff1660e01b8152600401611abc9493929190612852565b602060405180830381600087803b158015611ad657600080fd5b505af1925050508015611b0757506040513d601f19601f82011682018060405250810190611b0491906123fb565b60015b611b8a573d8060008114611b37576040519150601f19603f3d011682016040523d82523d6000602084013e611b3c565b606091505b50600081511415611b82576040517f08c379a0000000000000000000000000000000000000000000000000000000008152600401611b799061291d565b60405180910390fd5b805181602001fd5b63150b7a0260e01b7bffffffffffffffffffffffffffffffffffffffffffffffffffffffff1916817bffffffffffffffffffffffffffffffffffffffffffffffffffffffff191614915050611bdf565b600190505b949350505050565b606060006001611bf684611e30565b01905060008167ffffffffffffffff811115611c1557611c14612e4d565b5b6040519080825280601f01601f191660200182016040528015611c475781602001600182028036833780820191505090505b509050600082602001820190505b600115611cb4578080600190039150507f3031323334353637383961626364656600000000000000000000000000000000600a86061a8153600a8581611c9e57611c9d612dc0565b5b0494506000851415611caf57611cb4565b611c55565b819350505050919050565b6000611cca82610770565b9050611cda816000846001611a44565b611ce382610770565b90506004600083815260200190815260200160002060006101000a81549073ffffffffffffffffffffffffffffffffffffffff02191690556001600360008373ffffffffffffffffffffffffffffffffffffffff1673ffffffffffffffffffffffffffffffffffffffff168152602001908152602001600020600082825403925050819055506002600083815260200190815260200160002060006101000a81549073ffffffffffffffffffffffffffffffffffffffff021916905581600073ffffffffffffffffffffffffffffffffffffffff168273ffffffffffffffffffffffffffffffffffffffff167fddf252ad1be2c89b69c2b068fc378daa952ba7f163c4a11628f55a4df523b3ef60405160405180910390a4611e09816000846001611a4a565b5050565b6000808273ffffffffffffffffffffffffffffffffffffffff163b119050919050565b600080600090507a184f03e93ff9f4daa797ed6e38ed64bf6a1f0100000000000000008310611e8e577a184f03e93ff9f4daa797ed6e38ed64bf6a1f0100000000000000008381611e8457611e83612dc0565b5b0492506040810190505b6d04ee2d6d415b85acef81000000008310611ecb576d04ee2d6d415b85acef81000000008381611ec157611ec0612dc0565b5b0492506020810190505b662386f26fc100008310611efa57662386f26fc100008381611ef057611eef612dc0565b5b0492506010810190505b6305f5e1008310611f23576305f5e1008381611f1957611f18612dc0565b5b0492506008810190505b6127108310611f48576127108381611f3e57611f3d612dc0565b5b0492506004810190505b60648310611f6b5760648381611f6157611f60612dc0565b5b0492506002810190505b600a8310611f7a576001810190505b80915050919050565b828054611f8f90612ce5565b90600052602060002090601f016020900481019282611fb15760008555611ff8565b82601f10611fca57805160ff1916838001178555611ff8565b82800160010185558215611ff8579182015b82811115611ff7578251825591602001919060010190611fdc565b5b5090506120059190612049565b5090565b50805461201590612ce5565b6000825580601f106120275750612046565b601f0160209004906000526020600020908101906120459190612049565b5b50565b5b8082111561206257600081600090555060010161204a565b5090565b600061207961207484612b1d565b612af8565b90508281526020810184848401111561209557612094612e81565b5b6120a0848285612ca3565b509392505050565b60006120bb6120b684612b4e565b612af8565b9050828152602081018484840111156120d7576120d6612e81565b5b6120e2848285612ca3565b509392505050565b6000813590506120f98161325e565b92915050565b60008135905061210e81613275565b92915050565b6000813590506121238161328c565b92915050565b6000815190506121388161328c565b92915050565b600082601f83011261215357612152612e7c565b5b8135612163848260208601612066565b91505092915050565b600082601f83011261218157612180612e7c565b5b81356121918482602086016120a8565b91505092915050565b6000813590506121a9816132a3565b92915050565b6000602082840312156121c5576121c4612e8b565b5b60006121d3848285016120ea565b91505092915050565b600080604083850312156121f3576121f2612e8b565b5b6000612201858286016120ea565b9250506020612212858286016120ea565b9150509250929050565b60008060006060848603121561223557612234612e8b565b5b6000612243868287016120ea565b9350506020612254868287016120ea565b92505060406122658682870161219a565b9150509250925092565b6000806000806080858703121561228957612288612e8b565b5b6000612297878288016120ea565b94505060206122a8878288016120ea565b93505060406122b98782880161219a565b925050606085013567ffffffffffffffff8111156122da576122d9612e86565b5b6122e68782880161213e565b91505092959194509250565b6000806040838503121561230957612308612e8b565b5b6000612317858286016120ea565b9250506020612328858286016120ff565b9150509250929050565b6000806040838503121561234957612348612e8b565b5b6000612357858286016120ea565b925050602083013567ffffffffffffffff81111561237857612377612e86565b5b6123848582860161216c565b9150509250929050565b600080604083850312156123a5576123a4612e8b565b5b60006123b3858286016120ea565b92505060206123c48582860161219a565b9150509250929050565b6000602082840312156123e4576123e3612e8b565b5b60006123f284828501612114565b91505092915050565b60006020828403121561241157612410612e8b565b5b600061241f84828501612129565b91505092915050565b60006020828403121561243e5761243d612e8b565b5b600061244c8482850161219a565b91505092915050565b6000806040838503121561246c5761246b612e8b565b5b600061247a8582860161219a565b925050602083013567ffffffffffffffff81111561249b5761249a612e86565b5b6124a78582860161216c565b9150509250929050565b60006124bd83836127f5565b60208301905092915050565b6124d281612c2f565b82525050565b60006124e382612b8f565b6124ed8185612bbd565b93506124f883612b7f565b8060005b8381101561252957815161251088826124b1565b975061251b83612bb0565b9250506001810190506124fc565b5085935050505092915050565b61253f81612c41565b82525050565b600061255082612b9a565b61255a8185612bce565b935061256a818560208601612cb2565b61257381612e90565b840191505092915050565b600061258982612ba5565b6125938185612bdf565b93506125a3818560208601612cb2565b6125ac81612e90565b840191505092915050565b60006125c282612ba5565b6125cc8185612bf0565b93506125dc818560208601612cb2565b80840191505092915050565b60006125f5602d83612bdf565b915061260082612ea1565b604082019050919050565b6000612618603283612bdf565b915061262382612ef0565b604082019050919050565b600061263b602683612bdf565b915061264682612f3f565b604082019050919050565b600061265e602583612bdf565b915061266982612f8e565b604082019050919050565b6000612681601c83612bdf565b915061268c82612fdd565b602082019050919050565b60006126a4602483612bdf565b91506126af82613006565b604082019050919050565b60006126c7601983612bdf565b91506126d282613055565b602082019050919050565b60006126ea602983612bdf565b91506126f58261307e565b604082019050919050565b600061270d602e83612bdf565b9150612718826130cd565b604082019050919050565b6000612730602083612bdf565b915061273b8261311c565b602082019050919050565b6000612753602083612bdf565b915061275e82613145565b602082019050919050565b6000612776601883612bdf565b91506127818261316e565b602082019050919050565b6000612799602183612bdf565b91506127a482613197565b604082019050919050565b60006127bc603d83612bdf565b91506127c7826131e6565b604082019050919050565b60006127df601283612bdf565b91506127ea82613235565b602082019050919050565b6127fe81612c99565b82525050565b61280d81612c99565b82525050565b600061281f82856125b7565b915061282b82846125b7565b91508190509392505050565b600060208201905061284c60008301846124c9565b92915050565b600060808201905061286760008301876124c9565b61287460208301866124c9565b6128816040830185612804565b81810360608301526128938184612545565b905095945050505050565b600060208201905081810360008301526128b881846124d8565b905092915050565b60006020820190506128d56000830184612536565b92915050565b600060208201905081810360008301526128f5818461257e565b905092915050565b60006020820190508181036000830152612916816125e8565b9050919050565b600060208201905081810360008301526129368161260b565b9050919050565b600060208201905081810360008301526129568161262e565b9050919050565b6000602082019050818103600083015261297681612651565b9050919050565b6000602082019050818103600083015261299681612674565b9050919050565b600060208201905081810360008301526129b681612697565b9050919050565b600060208201905081810360008301526129d6816126ba565b9050919050565b600060208201905081810360008301526129f6816126dd565b9050919050565b60006020820190508181036000830152612a1681612700565b9050919050565b60006020820190508181036000830152612a3681612723565b9050919050565b60006020820190508181036000830152612a5681612746565b9050919050565b60006020820190508181036000830152612a7681612769565b9050919050565b60006020820190508181036000830152612a968161278c565b9050919050565b60006020820190508181036000830152612ab6816127af565b9050919050565b60006020820190508181036000830152612ad6816127d2565b9050919050565b6000602082019050612af26000830184612804565b92915050565b6000612b02612b13565b9050612b0e8282612d17565b919050565b6000604051905090565b600067ffffffffffffffff821115612b3857612b37612e4d565b5b612b4182612e90565b9050602081019050919050565b600067ffffffffffffffff821115612b6957612b68612e4d565b5b612b7282612e90565b9050602081019050919050565b6000819050602082019050919050565b600081519050919050565b600081519050919050565b600081519050919050565b6000602082019050919050565b600082825260208201905092915050565b600082825260208201905092915050565b600082825260208201905092915050565b600081905092915050565b6000612c0682612c99565b9150612c1183612c99565b925082821015612c2457612c23612d91565b5b828203905092915050565b6000612c3a82612c79565b9050919050565b60008115159050919050565b60007fffffffff0000000000000000000000000000000000000000000000000000000082169050919050565b600073ffffffffffffffffffffffffffffffffffffffff82169050919050565b6000819050919050565b82818337600083830152505050565b60005b83811015612cd0578082015181840152602081019050612cb5565b83811115612cdf576000848401525b50505050565b60006002820490506001821680612cfd57607f821691505b60208210811415612d1157612d10612def565b5b50919050565b612d2082612e90565b810181811067ffffffffffffffff82111715612d3f57612d3e612e4d565b5b80604052505050565b6000612d5382612c99565b91507fffffffffffffffffffffffffffffffffffffffffffffffffffffffffffffffff821415612d8657612d85612d91565b5b600182019050919050565b7f4e487b7100000000000000000000000000000000000000000000000000000000600052601160045260246000fd5b7f4e487b7100000000000000000000000000000000000000000000000000000000600052601260045260246000fd5b7f4e487b7100000000000000000000000000000000000000000000000000000000600052602260045260246000fd5b7f4e487b7100000000000000000000000000000000000000000000000000000000600052603260045260246000fd5b7f4e487b7100000000000000000000000000000000000000000000000000000000600052604160045260246000fd5b600080fd5b600080fd5b600080fd5b600080fd5b6000601f19601f8301169050919050565b7f4552433732313a2063616c6c6572206973206e6f7420746f6b656e206f776e6560008201527f72206f7220617070726f76656400000000000000000000000000000000000000602082015250565b7f4552433732313a207472616e7366657220746f206e6f6e20455243373231526560008201527f63656976657220696d706c656d656e7465720000000000000000000000000000602082015250565b7f4f776e61626c653a206e6577206f776e657220697320746865207a65726f206160008201527f6464726573730000000000000000000000000000000000000000000000000000602082015250565b7f4552433732313a207472616e736665722066726f6d20696e636f72726563742060008201527f6f776e6572000000000000000000000000000000000000000000000000000000602082015250565b7f4552433732313a20746f6b656e20616c7265616479206d696e74656400000000600082015250565b7f4552433732313a207472616e7366657220746f20746865207a65726f2061646460008201527f7265737300000000000000000000000000000000000000000000000000000000602082015250565b7f4552433732313a20617070726f766520746f2063616c6c657200000000000000600082015250565b7f4552433732313a2061646472657373207a65726f206973206e6f74206120766160008201527f6c6964206f776e65720000000000000000000000000000000000000000000000602082015250565b7f45524337323155524953746f726167653a2055524920736574206f66206e6f6e60008201527f6578697374656e7420746f6b656e000000000000000000000000000000000000602082015250565b7f4552433732313a206d696e7420746f20746865207a65726f2061646472657373600082015250565b7f4f776e61626c653a2063616c6c6572206973206e6f7420746865206f776e6572600082015250565b7f4552433732313a20696e76616c696420746f6b656e2049440000000000000000600082015250565b7f4552433732313a20617070726f76616c20746f2063757272656e74206f776e6560008201527f7200000000000000000000000000000000000000000000000000000000000000602082015250565b7f4552433732313a20617070726f76652063616c6c6572206973206e6f7420746f60008201527f6b656e206f776e6572206f7220617070726f76656420666f7220616c6c000000602082015250565b7f4e465420646f6573206e6f742065786973740000000000000000000000000000600082015250565b61326781612c2f565b811461327257600080fd5b50565b61327e81612c41565b811461328957600080fd5b50565b61329581612c4d565b81146132a057600080fd5b50565b6132ac81612c99565b81146132b757600080fd5b5056fea2646970667358221220101a9388b4a9b2904e714b185236338de98d75539343464c4ae609203299510964736f6c63430008070033",
  "linkReferences": {},
  "deployedLinkReferences": {}
}